:020000040000FA
:0400000006EF00F017
:020004000000FA
:08000800A2EF01F0D388D39AA6
:10001000D38C0F0E666E140EBB6EBA6ABC6A0F01EB
:10002000806A896A926A386B946A3A6B8B6A826AD0
:10003000836A8C6A3B6B956A846A8D6A3C6B966AAC
:1000400082928098809A809C809E83908392F26AAC
:10005000F286F28EF28C7D80536B52694B0E516F9B
:1000600093883999628851850001000E0D6E000E4B
:100070000E6E000E0F6E5C0E136E9482BA94519544
:10008000676A806A816A826A836A846A016A026A2C
:10009000036A046A056A066A076A086A006A096AE6
:1000A00079EC00F0CAEC01F089EC00F094EC00F07F
:1000B000010E196274EC00F09FEC00F0A9EC00F066
:1000C00094EC01F0DEEC00F0100E0D6258EF00F041
:1000D0003AEC01F06BEC01F0C3EC00F0CAEC01F07B
:1000E000D3EC00F035EF00F0010E196E536B006A8F
:1000F000120083B412001D0EC06E000EC16E9494E7
:100100003A958284390EC26E948A3A8B450EC26E3D
:100110001200C282C450126EC2B2FED7C450116E19
:1001200012501164F6D712000F01826A8B6A949202
:10013000BA8400011D0EC06E310EC26E1200010E97
:100140000E621200010E0F6212000D2A0F6A0E6A73
:100150001200C282C2B2FED7C450106E1350106299
:10016000B4EF00F0A9EF00F01064B9EF00F0BEEFBB
:1001700000F0120E676E010E0F6E1200050E676E14
:10018000010E0E6E1200BA94676A1D0EC06E000E4C
:10019000C16E94963A978286390EC26E948A3A8BD3
:1001A000450EC26E1200C282C450126EC2B2FED799
:1001B000C450116E12501160ACD71200000E0D62C7
:1001C000E3EF00F01200020E0D62EEEF00F0E9EF37
:1001D00000F00050016E006A536B1200040E0D62B5
:1001E000F9EF00F0F4EF00F00050026E006A536B7C
:1001F0001200060E0D6204EF01F0FFEF00F0005058
:10020000036E006A536B1200080E0D620FEF01F0CF
:100210000AEF01F00050046E006A536B12000A0EE0
:100220000D621AEF01F015EF01F00050056E006A43
:10023000536B12000C0E0D6225EF01F020EF01F060
:100240000050066E006A536B12000E0E0D6230EF06
:1002500001F02BEF01F00050076E006A536B1200A3
:10026000100E0D62120035EF01F00050086E006AAA
:10027000536B1200E86A0142014201420150092613
:10028000E86A02420242024202500926E86A034238
:100290000342034203500926E86A0442044204422E
:1002A00004500926E86A0542054205420550092620
:1002B000E86A06420642064206500926E86A0742F4
:1002C0000742074207500926E86A084208420842E6
:1002D0000850092612007A0E096471EF01F089EFC7
:1002E00001F080885C0E096479EF01F083808392CD
:1002F0001200808A490E096481EF01F083808392A5
:100300001200808C310E096490EF01F0838083929B
:1003100012008098809A809C809E83828390120035
:10032000808E8382839012000F0E166EFF0E176E62
:10033000FF0E186E182E9AEF01F0172E98EF01F0AD
:10034000162E1200F2B0AAEF01F07EB0C4EF01F059
:10035000C7EF01F081528088CAEC01F0808ACAECB4
:1003600001F0808CCAEC01F0808ECAEC01F080981C
:10037000CAEC01F0809ACAEC01F0809CCAEC01F052
:10038000809E8390839203D0002AC7EF01F0F29001
:100390007E9010000A0E0A6E140E0B0E270E0C6EC5
:1003A000000000000C06FCE10B06F8E10A06F4E18F
:0203B000120039
:020000040030CA
:0100010028D6
:010003003CC0
:010006008574
:00000001FF
